:1000000009C016C0F8C014C013C012C011C010C07F
:100010000FC00EC011241FBECFE9CDBF20E0A0E667
:10002000B0E001C01D92A736B207E1F778D1D6C182
:10003000E7CF809161008130F1F4809162008150BE
:10004000809362008091620086BF80916400882363
:1000500029F08FEA94E00197F1F704C08FE599E069
:100060000197F1F700C0000080916200811103C088
:10007000C398109261000895809161008130F1F47D
:10008000809162008150809362008091620089BDFE
:1000900080916400882329F08FEA94E00197F1F7BA
:1000A00004C08FE599E00197F1F700C0000080914E
:1000B0006200811103C0C39810926100089590916D
:1000C0006200981760F590916100911128C090919D
:1000D00062009F5F909362009091620099BD909141
:1000E000620096BF90916400992329F0EFEAF4E052
:1000F0003197F1F704C0EFE5F9E03197F1F700C06F
:1001000000009091620098130AC0809160008823DB
:1001100011F0C39A01C0C39881E08093610080917F
:100120006200882329F180916100813009F5809176
:1001300062008150809362008091620089BD80914D
:10014000620086BF80916400882329F08FEA94E0E2
:100150000197F1F704C0EFE5F9E03197F1F700C03E
:10016000000080916200811103C0C3981092610069
:1001700008958BE187BB84E088BB93EA9FBD97E736
:100180009093650083BF8BB780628BBFAA9A089556
:10019000B29930C0909165009093630091E0909384
:1001A000660010926500882309F1E0EFF0E03197D6
:1001B000F1F7B29B10C02091650090916600922BE0
:1001C0009093650090916600990F90936600F6E217
:1001D000FA95F1F708C090916600990F9093660028
:1001E00096E29A95F1F700C08150DDCF109262003F
:1001F0001092610008951F920F920FB60F92112472
:100200002F933F934F935F936F937F938F939F931E
:10021000AF93BF93EF93FF9388E0BADFFF91EF9125
:10022000BF91AF919F918F917F916F915F914F910E
:100230003F912F910F900FBE0F901F90189593E84C
:100240009FBD662391F190916200981748F59091B7
:100250006100911125C0909162009F5F90936200B0
:100260009091620096BF90916400992329F0EFEA83
:10027000F4E03197F1F704C0EFE5F9E03197F1F7D9
:1002800000C000009091620098130AC08091600045
:10029000882311F0C39A01C0C39881E08093610064
:1002A00080916200882311F0C4CE86BF089593E246
:1002B0009FBD662391F190916200981748F5909147
:1002C0006100911125C0909162009F5F9093620040
:1002D0009091620099BD90916400992329F0EFEA12
:1002E000F4E03197F1F704C0EFE5F9E03197F1F769
:1002F00000C000009091620098130AC080916000D5
:10030000882311F0C39A01C0C39881E080936100F3
:1003100080916200882311F0AFCE89BD089529DF56
:100320007894C3EAD3E213E880916500833509F439
:1003300044C0B8F48334E9F150F48D3209F440C07C
:10034000823409F046C081E08093600042C0873467
:1003500039F1823511F18634E1F581E08093640052
:1003600038C0833641F138F48735F1F0823689F5AB
:10037000109260002EC0823741F0873751F08736E7
:1003800041F561E08FEF93DFCFCF61E08FEF57DF73
:10039000CBCFCFBD8FEF93DEC7CF1FBD8FEF07C091
:1003A000DFBD8FEF89BDC0CFCFBD8FEF89BD86BFC9
:1003B000BBCFC49A0EC0C4980CC01092640009C090
:1003C0008FB58F7D8FBD8FB58F778FBD10926400F5
:1003D000ABCF8091630080936500A6CFF894FFCFE8
:00000001FF
